{
    "contractName": "Multisig",
    "abi": [
        {
            "inputs": [
                {
                    "internalType": "address[]",
                    "name": "_owners",
                    "type": "address[]"
                },
                {
                    "internalType": "uint256",
                    "name": "_required",
                    "type": "uint256"
                }
            ],
            "stateMutability": "payable",
            "type": "constructor"
        },
        {
            "anonymous": false,
            "inputs": [
                {
                    "indexed": false,
                    "internalType": "uint256",
                    "name": "txId",
                    "type": "uint256"
                },
                {
                    "indexed": false,
                    "internalType": "address",
                    "name": "owner",
                    "type": "address"
                }
            ],
            "name": "Approved",
            "type": "event"
        },
        {
            "anonymous": false,
            "inputs": [
                {
                    "indexed": false,
                    "internalType": "uint256",
                    "name": "txId",
                    "type": "uint256"
                }
            ],
            "name": "Executed",
            "type": "event"
        },
        {
            "anonymous": false,
            "inputs": [
                {
                    "indexed": false,
                    "internalType": "uint256",
                    "name": "txId",
                    "type": "uint256"
                }
            ],
            "name": "Revoked",
            "type": "event"
        },
        {
            "anonymous": false,
            "inputs": [
                {
                    "indexed": false,
                    "internalType": "uint256",
                    "name": "txId",
                    "type": "uint256"
                }
            ],
            "name": "TransactionCreated",
            "type": "event"
        },
        {
            "inputs": [
                {
                    "internalType": "uint256",
                    "name": "",
                    "type": "uint256"
                }
            ],
            "name": "approvalAddress",
            "outputs": [
                {
                    "internalType": "address",
                    "name": "",
                    "type": "address"
                }
            ],
            "stateMutability": "view",
            "type": "function"
        },
        {
            "inputs": [
                {
                    "internalType": "uint256",
                    "name": "_txId",
                    "type": "uint256"
                }
            ],
            "name": "approveAndExecute",
            "outputs": [],
            "stateMutability": "nonpayable",
            "type": "function"
        },
        {
            "inputs": [
                {
                    "internalType": "address payable",
                    "name": "_to",
                    "type": "address"
                },
                {
                    "internalType": "uint256",
                    "name": "_txId",
                    "type": "uint256"
                },
                {
                    "internalType": "uint256",
                    "name": "_amount",
                    "type": "uint256"
                }
            ],
            "name": "createTransaction",
            "outputs": [],
            "stateMutability": "nonpayable",
            "type": "function"
        },
        {
            "inputs": [
                {
                    "internalType": "uint256",
                    "name": "",
                    "type": "uint256"
                }
            ],
            "name": "owners",
            "outputs": [
                {
                    "internalType": "address",
                    "name": "",
                    "type": "address"
                }
            ],
            "stateMutability": "view",
            "type": "function"
        },
        {
            "inputs": [],
            "name": "required",
            "outputs": [
                {
                    "internalType": "uint256",
                    "name": "",
                    "type": "uint256"
                }
            ],
            "stateMutability": "view",
            "type": "function"
        }
    ],
    "bytecode": "6080604052604051610a04380380610a04833981016040819052610022916101be565b60008251116100785760405162461bcd60e51b815260206004820152601360248201527f696e76616c6964206f776e65722061727261790000000000000000000000000060448201526064015b60405180910390fd5b6000600154116100ca5760405162461bcd60e51b815260206004820152601660248201527f696e76616c69642072657175697265642076616c756500000000000000000000604482015260640161006f565b60005b82518110156101825760008382815181106100ea576100ea61028a565b60209081029190910181015182546001808201855560009485529284200180546001600160a01b0319166001600160a01b039092169190911790558451909160029186908590811061013e5761013e61028a565b6020908102919091018101516001600160a01b03168252810191909152604001600020805460ff19169115159190911790558061017a816102a0565b9150506100cd565b50600155506102c7565b634e487b7160e01b600052604160045260246000fd5b80516001600160a01b03811681146101b957600080fd5b919050565b600080604083850312156101d157600080fd5b82516001600160401b03808211156101e857600080fd5b818501915085601f8301126101fc57600080fd5b81516020828211156102105761021061018c565b8160051b604051601f19603f830116810181811086821117156102355761023561018c565b60405292835281830193508481018201928984111561025357600080fd5b948201945b8386101561027857610269866101a2565b85529482019493820193610258565b97909101519698969750505050505050565b634e487b7160e01b600052603260045260246000fd5b6000600182016102c057634e487b7160e01b600052601160045260246000fd5b5060010190565b61072e806102d66000396000f3fe608060405234801561001057600080fd5b50600436106100575760003560e01c8063025e7c271461005c5780632337afeb1461008c57806338acdb23146100b5578063dc8452cd146100ca578063fa01d9ba146100e1575b600080fd5b61006f61006a366004610677565b6100f4565b6040516001600160a01b0390911681526020015b60405180910390f35b61006f61009a366004610677565b6004602052600090815260409020546001600160a01b031681565b6100c86100c3366004610690565b61011e565b005b6100d360015481565b604051908152602001610083565b6100c86100ef366004610677565b61037e565b6000818154811061010457600080fd5b6000918252602090912001546001600160a01b0316905081565b3360009081526002602052604090205460ff166101735760405162461bcd60e51b815260206004820152600e60248201526d1b9bdd08185d5d1a1bdc9a5cd95960921b60448201526064015b60405180910390fd5b6040518281527f20249019acac6e99959366f842671611cd943aa8071804678030725f38bc787e9060200160405180910390a16040518060c0016040528083815260200160001515815260200160008152602001846001600160a01b0316815260200182815260200160001515815250600360008481526020019081526020016000206000820151816000015560208201518160010160006101000a81548160ff0219169083151502179055506040820151816002015560608201518160030160006101000a8154816001600160a01b0302191690836001600160a01b031602179055506080820151816004015560a08201518160050160006101000a81548160ff02191690831515021790555090505060056040518060c0016040528084815260200160001515815260200160008152602001856001600160a01b031681526020018381526020016000151581525090806001815401808255809150506001900390600052602060002090600602016000909190919091506000820151816000015560208201518160010160006101000a81548160ff0219169083151502179055506040820151816002015560608201518160030160006101000a8154816001600160a01b0302191690836001600160a01b031602179055506080820151816004015560a08201518160050160006101000a81548160ff0219169083151502179055505050505050565b3360009081526002602052604090205460ff166103ce5760405162461bcd60e51b815260206004820152600e60248201526d1b9bdd08185d5d1a1bdc9a5cd95960921b604482015260640161016a565b600081815260046020526040902054336001600160a01b03909116036104295760405162461bcd60e51b815260206004820152601060248201526f185b1c9958591e48185c1c1c9bdd995960821b604482015260640161016a565b600081815260046020908152604080832080546001600160a01b0319163317905560039091528120600201805491610460836106d1565b9091555050604080518281523360208201527f7b39c92a7e1a86e846edaeff6eba715a046352c596794c2a374269c126a99768910160405180910390a160015460008281526003602052604090206002015410156105005760405162461bcd60e51b815260206004820152601760248201527f77616974696e67206f7468657220617070726f76616c73000000000000000000604482015260640161016a565b6105098161050c565b50565b6000818152600360205260409020600581015460ff161561056f5760405162461bcd60e51b815260206004820152601c60248201527f7472616e73616374696f6e20616c726561647920657865637574656400000000604482015260640161016a565b600154816002015410156105c55760405162461bcd60e51b815260206004820152601860248201527f7472616e73616374696f6e206e6f7420617070726f7665640000000000000000604482015260640161016a565b60058101805460ff19166001179055600381015460048201546040516000926001600160a01b031691908381818185875af1925050503d8060008114610627576040519150601f19603f3d011682016040523d82523d6000602084013e61062c565b606091505b50509050806106725760405162461bcd60e51b81526020600482015260126024820152711d1c985b9cd858dd1a5bdb8819985a5b195960721b604482015260640161016a565b505050565b60006020828403121561068957600080fd5b5035919050565b6000806000606084860312156106a557600080fd5b83356001600160a01b03811681146106bc57600080fd5b95602085013595506040909401359392505050565b6000600182016106f157634e487b7160e01b600052601160045260246000fd5b506001019056fea2646970667358221220b6178ad0391a4f3f000853bcdfb86304a9db2ad70248752a490b82cff960385664736f6c634300080d0033",
    "sourcePath": "/home/emmanuel/Smart-Contracts/contracts/multisig/multisig.sol",
    "compiler": {
        "name": "solc",
        "version": "0.8.13+commit.abaa5c0e"
    },
    "functionHashes": {
        "approvalAddress(uint256)": "2337afeb",
        "approveAndExecute(uint256)": "fa01d9ba",
        "createTransaction(address,uint256,uint256)": "38acdb23",
        "owners(uint256)": "025e7c27",
        "required()": "dc8452cd"
    },
    "gasEstimates": {
        "creation": {
            "codeDepositCost": "367600",
            "executionCost": "infinite",
            "totalCost": "infinite"
        },
        "external": {
            "approvalAddress(uint256)": "2466",
            "approveAndExecute(uint256)": "infinite",
            "createTransaction(address,uint256,uint256)": "272586",
            "owners(uint256)": "4581",
            "required()": "2339"
        },
        "internal": {
            "_execute(uint256)": "infinite"
        }
    }
}