{
    "contractName": "MultisigWallet",
    "abi": [
        {
            "inputs": [
                {
                    "internalType": "address[]",
                    "name": "_owners",
                    "type": "address[]"
                },
                {
                    "internalType": "uint256",
                    "name": "_required",
                    "type": "uint256"
                }
            ],
            "stateMutability": "payable",
            "type": "constructor"
        },
        {
            "anonymous": false,
            "inputs": [
                {
                    "indexed": false,
                    "internalType": "uint256",
                    "name": "txId",
                    "type": "uint256"
                },
                {
                    "indexed": false,
                    "internalType": "address",
                    "name": "owner",
                    "type": "address"
                }
            ],
            "name": "Approved",
            "type": "event"
        },
        {
            "anonymous": false,
            "inputs": [
                {
                    "indexed": false,
                    "internalType": "uint256",
                    "name": "txId",
                    "type": "uint256"
                }
            ],
            "name": "Executed",
            "type": "event"
        },
        {
            "anonymous": false,
            "inputs": [
                {
                    "indexed": false,
                    "internalType": "uint256",
                    "name": "txId",
                    "type": "uint256"
                }
            ],
            "name": "Revoked",
            "type": "event"
        },
        {
            "anonymous": false,
            "inputs": [
                {
                    "indexed": false,
                    "internalType": "uint256",
                    "name": "txId",
                    "type": "uint256"
                }
            ],
            "name": "TransactionCreated",
            "type": "event"
        },
        {
            "inputs": [
                {
                    "internalType": "uint256",
                    "name": "",
                    "type": "uint256"
                },
                {
                    "internalType": "uint256",
                    "name": "",
                    "type": "uint256"
                }
            ],
            "name": "approvalAddress",
            "outputs": [
                {
                    "internalType": "address",
                    "name": "",
                    "type": "address"
                }
            ],
            "stateMutability": "view",
            "type": "function"
        },
        {
            "inputs": [
                {
                    "internalType": "uint256",
                    "name": "_txId",
                    "type": "uint256"
                }
            ],
            "name": "approveAndExecute",
            "outputs": [],
            "stateMutability": "nonpayable",
            "type": "function"
        },
        {
            "inputs": [
                {
                    "internalType": "address payable",
                    "name": "_to",
                    "type": "address"
                },
                {
                    "internalType": "uint256",
                    "name": "_txId",
                    "type": "uint256"
                },
                {
                    "internalType": "uint256",
                    "name": "_amount",
                    "type": "uint256"
                }
            ],
            "name": "createTransaction",
            "outputs": [],
            "stateMutability": "nonpayable",
            "type": "function"
        },
        {
            "inputs": [
                {
                    "internalType": "uint256",
                    "name": "",
                    "type": "uint256"
                }
            ],
            "name": "owners",
            "outputs": [
                {
                    "internalType": "address",
                    "name": "",
                    "type": "address"
                }
            ],
            "stateMutability": "view",
            "type": "function"
        },
        {
            "inputs": [],
            "name": "required",
            "outputs": [
                {
                    "internalType": "uint256",
                    "name": "",
                    "type": "uint256"
                }
            ],
            "stateMutability": "view",
            "type": "function"
        },
        {
            "stateMutability": "payable",
            "type": "receive"
        }
    ],
    "bytecode": "608060405260405162000b0f38038062000b0f8339810160408190526200002691620001d1565b60008251116200007d5760405162461bcd60e51b815260206004820152601360248201527f696e76616c6964206f776e65722061727261790000000000000000000000000060448201526064015b60405180910390fd5b600060015411620000d15760405162461bcd60e51b815260206004820152601660248201527f696e76616c69642072657175697265642076616c756500000000000000000000604482015260640162000074565b60005b825181101562000193576000838281518110620000f557620000f5620002ab565b60209081029190910181015182546001808201855560009485529284200180546001600160a01b0319166001600160a01b03909216919091179055845190916002918690859081106200014c576200014c620002ab565b6020908102919091018101516001600160a01b03168252810191909152604001600020805460ff1916911515919091179055806200018a81620002c1565b915050620000d4565b5060015550620002e9565b634e487b7160e01b600052604160045260246000fd5b80516001600160a01b0381168114620001cc57600080fd5b919050565b60008060408385031215620001e557600080fd5b82516001600160401b0380821115620001fd57600080fd5b818501915085601f8301126200021257600080fd5b81516020828211156200022957620002296200019e565b8160051b604051601f19603f830116810181811086821117156200025157620002516200019e565b6040529283528183019350848101820192898411156200027057600080fd5b948201945b8386101562000299576200028986620001b4565b8552948201949382019362000275565b97909101519698969750505050505050565b634e487b7160e01b600052603260045260246000fd5b600060018201620002e257634e487b7160e01b600052601160045260246000fd5b5060010190565b61081680620002f96000396000f3fe60806040526004361061004e5760003560e01c8063025e7c271461005a57806338acdb23146100975780635fa44b4d146100b9578063dc8452cd146100fa578063fa01d9ba1461011e57600080fd5b3661005557005b600080fd5b34801561006657600080fd5b5061007a61007536600461073d565b61013e565b6040516001600160a01b0390911681526020015b60405180910390f35b3480156100a357600080fd5b506100b76100b2366004610756565b610168565b005b3480156100c557600080fd5b5061007a6100d4366004610797565b60046020908152600092835260408084209091529082529020546001600160a01b031681565b34801561010657600080fd5b5061011060015481565b60405190815260200161008e565b34801561012a57600080fd5b506100b761013936600461073d565b6103ce565b6000818154811061014e57600080fd5b6000918252602090912001546001600160a01b0316905081565b3360009081526002602052604090205460ff166101bd5760405162461bcd60e51b815260206004820152600e60248201526d1b9bdd08185d5d1a1bdc9a5cd95960921b60448201526064015b60405180910390fd5b6040518060c0016040528083815260200160001515815260200160008152602001846001600160a01b0316815260200182815260200160001515815250600360008481526020019081526020016000206000820151816000015560208201518160010160006101000a81548160ff0219169083151502179055506040820151816002015560608201518160030160006101000a8154816001600160a01b0302191690836001600160a01b031602179055506080820151816004015560a08201518160050160006101000a81548160ff02191690831515021790555090505060056040518060c0016040528084815260200160001515815260200160008152602001856001600160a01b031681526020018381526020016000151581525090806001815401808255809150506001900390600052602060002090600602016000909190919091506000820151816000015560208201518160010160006101000a81548160ff0219169083151502179055506040820151816002015560608201518160030160006101000a8154816001600160a01b0302191690836001600160a01b031602179055506080820151816004015560a08201518160050160006101000a81548160ff02191690831515021790555050507f20249019acac6e99959366f842671611cd943aa8071804678030725f38bc787e826040516103c191815260200190565b60405180910390a1505050565b3360009081526002602052604090205460ff1661041e5760405162461bcd60e51b815260206004820152600e60248201526d1b9bdd08185d5d1a1bdc9a5cd95960921b60448201526064016101b4565b6040516bffffffffffffffffffffffff193360601b16602082015260009060340160408051808303601f190181529181528151602092830120600081815260048452828120868252909352912054909150336001600160a01b03909116036104bb5760405162461bcd60e51b815260206004820152601060248201526f185b1c9958591e48185c1c1c9bdd995960821b60448201526064016101b4565b6000818152600460209081526040808320858452825280832080546001600160a01b03191633179055600390915281206002018054916104fa836107b9565b9091555050604080518381523360208201527f7b39c92a7e1a86e846edaeff6eba715a046352c596794c2a374269c126a99768910160405180910390a1600154600083815260036020526040902060020154101561059a5760405162461bcd60e51b815260206004820152601760248201527f77616974696e67206f7468657220617070726f76616c7300000000000000000060448201526064016101b4565b6105a3826105a7565b5050565b6000818152600360205260409020600581015460ff161561060a5760405162461bcd60e51b815260206004820152601c60248201527f7472616e73616374696f6e20616c72656164792065786563757465640000000060448201526064016101b4565b600154816002015410156106605760405162461bcd60e51b815260206004820152601860248201527f7472616e73616374696f6e206e6f7420617070726f766564000000000000000060448201526064016101b4565b60058101805460ff19166001179055600381015460048201546040516000926001600160a01b031691908381818185875af1925050503d80600081146106c2576040519150601f19603f3d011682016040523d82523d6000602084013e6106c7565b606091505b505090508061070d5760405162461bcd60e51b81526020600482015260126024820152711d1c985b9cd858dd1a5bdb8819985a5b195960721b60448201526064016101b4565b6040518381527fbcf6a68a2f901be4a23a41b53acd7697893a7e34def4e28acba584da75283b67906020016103c1565b60006020828403121561074f57600080fd5b5035919050565b60008060006060848603121561076b57600080fd5b83356001600160a01b038116811461078257600080fd5b95602085013595506040909401359392505050565b600080604083850312156107aa57600080fd5b50508035926020909101359150565b6000600182016107d957634e487b7160e01b600052601160045260246000fd5b506001019056fea264697066735822122074fdc242493a8087d1ee120056aa269e15613513e1fc11871d71db8e38e3b8bb64736f6c634300080d0033",
    "sourcePath": "/home/emmanuel/Smart-Contracts/contracts/multisig/multisig.sol",
    "compiler": {
        "name": "solc",
        "version": "0.8.13+commit.abaa5c0e"
    },
    "functionHashes": {
        "approvalAddress(uint256,uint256)": "5fa44b4d",
        "approveAndExecute(uint256)": "fa01d9ba",
        "createTransaction(address,uint256,uint256)": "38acdb23",
        "owners(uint256)": "025e7c27",
        "required()": "dc8452cd"
    },
    "gasEstimates": {
        "creation": {
            "codeDepositCost": "414000",
            "executionCost": "infinite",
            "totalCost": "infinite"
        },
        "external": {
            "approvalAddress(uint256,uint256)": "2583",
            "approveAndExecute(uint256)": "infinite",
            "createTransaction(address,uint256,uint256)": "272582",
            "owners(uint256)": "4581",
            "required()": "2339"
        },
        "internal": {
            "_execute(uint256)": "infinite"
        }
    }
}